{
  "_format": "hh-sol-artifact-1",
  "contractName": "NFT",
  "sourceName": "contracts/NFT.sol",
  "abi": [
    {
      "inputs": [
        {
          "internalType": "address",
          "name": "mrkplaceAddr",
          "type": "address"
        }
      ],
      "stateMutability": "nonpayable",
      "type": "constructor"
    },
    {
      "inputs": [],
      "name": "ERC721_NonSelfApprove",
      "type": "error"
    },
    {
      "inputs": [],
      "name": "ERC721_NotExist",
      "type": "error"
    },
    {
      "inputs": [],
      "name": "ERC721_NotOwner",
      "type": "error"
    },
    {
      "inputs": [],
      "name": "ERC721_Unauthorize",
      "type": "error"
    },
    {
      "anonymous": false,
      "inputs": [
        {
          "indexed": true,
          "internalType": "address",
          "name": "owner",
          "type": "address"
        },
        {
          "indexed": true,
          "internalType": "address",
          "name": "approved",
          "type": "address"
        },
        {
          "indexed": true,
          "internalType": "uint256",
          "name": "tokenId",
          "type": "uint256"
        }
      ],
      "name": "Approval",
      "type": "event"
    },
    {
      "anonymous": false,
      "inputs": [
        {
          "indexed": true,
          "internalType": "address",
          "name": "owner",
          "type": "address"
        },
        {
          "indexed": true,
          "internalType": "address",
          "name": "operator",
          "type": "address"
        },
        {
          "indexed": false,
          "internalType": "bool",
          "name": "approved",
          "type": "bool"
        }
      ],
      "name": "ApprovalForAll",
      "type": "event"
    },
    {
      "anonymous": false,
      "inputs": [
        {
          "indexed": true,
          "internalType": "address",
          "name": "from",
          "type": "address"
        },
        {
          "indexed": true,
          "internalType": "address",
          "name": "to",
          "type": "address"
        },
        {
          "indexed": true,
          "internalType": "uint256",
          "name": "tokenId",
          "type": "uint256"
        }
      ],
      "name": "Transfer",
      "type": "event"
    },
    {
      "inputs": [
        {
          "internalType": "address",
          "name": "_to",
          "type": "address"
        },
        {
          "internalType": "uint256",
          "name": "tokenId",
          "type": "uint256"
        }
      ],
      "name": "_approveTransfer",
      "outputs": [],
      "stateMutability": "nonpayable",
      "type": "function"
    },
    {
      "inputs": [
        {
          "internalType": "address",
          "name": "to",
          "type": "address"
        },
        {
          "internalType": "uint256",
          "name": "tokenId",
          "type": "uint256"
        }
      ],
      "name": "approve",
      "outputs": [],
      "stateMutability": "nonpayable",
      "type": "function"
    },
    {
      "inputs": [
        {
          "internalType": "address",
          "name": "owner",
          "type": "address"
        }
      ],
      "name": "balanceOf",
      "outputs": [
        {
          "internalType": "uint256",
          "name": "",
          "type": "uint256"
        }
      ],
      "stateMutability": "view",
      "type": "function"
    },
    {
      "inputs": [
        {
          "internalType": "uint256",
          "name": "_tokenId",
          "type": "uint256"
        }
      ],
      "name": "burn",
      "outputs": [],
      "stateMutability": "nonpayable",
      "type": "function"
    },
    {
      "inputs": [
        {
          "internalType": "uint256",
          "name": "tokenId",
          "type": "uint256"
        }
      ],
      "name": "getApproved",
      "outputs": [
        {
          "internalType": "address",
          "name": "",
          "type": "address"
        }
      ],
      "stateMutability": "view",
      "type": "function"
    },
    {
      "inputs": [
        {
          "internalType": "address",
          "name": "owner",
          "type": "address"
        },
        {
          "internalType": "address",
          "name": "operator",
          "type": "address"
        }
      ],
      "name": "isApprovedForAll",
      "outputs": [
        {
          "internalType": "bool",
          "name": "",
          "type": "bool"
        }
      ],
      "stateMutability": "view",
      "type": "function"
    },
    {
      "inputs": [
        {
          "internalType": "string",
          "name": "_tokenURI",
          "type": "string"
        }
      ],
      "name": "mintToken",
      "outputs": [
        {
          "internalType": "uint256",
          "name": "",
          "type": "uint256"
        }
      ],
      "stateMutability": "nonpayable",
      "type": "function"
    },
    {
      "inputs": [],
      "name": "name",
      "outputs": [
        {
          "internalType": "string",
          "name": "",
          "type": "string"
        }
      ],
      "stateMutability": "view",
      "type": "function"
    },
    {
      "inputs": [
        {
          "internalType": "uint256",
          "name": "tokenId",
          "type": "uint256"
        }
      ],
      "name": "ownerOf",
      "outputs": [
        {
          "internalType": "address",
          "name": "",
          "type": "address"
        }
      ],
      "stateMutability": "view",
      "type": "function"
    },
    {
      "inputs": [
        {
          "internalType": "address",
          "name": "from",
          "type": "address"
        },
        {
          "internalType": "address",
          "name": "to",
          "type": "address"
        },
        {
          "internalType": "uint256",
          "name": "tokenId",
          "type": "uint256"
        }
      ],
      "name": "safeTransferFrom",
      "outputs": [],
      "stateMutability": "nonpayable",
      "type": "function"
    },
    {
      "inputs": [
        {
          "internalType": "address",
          "name": "from",
          "type": "address"
        },
        {
          "internalType": "address",
          "name": "to",
          "type": "address"
        },
        {
          "internalType": "uint256",
          "name": "tokenId",
          "type": "uint256"
        },
        {
          "internalType": "bytes",
          "name": "data",
          "type": "bytes"
        }
      ],
      "name": "safeTransferFrom",
      "outputs": [],
      "stateMutability": "nonpayable",
      "type": "function"
    },
    {
      "inputs": [
        {
          "internalType": "address",
          "name": "operator",
          "type": "address"
        },
        {
          "internalType": "bool",
          "name": "approved",
          "type": "bool"
        }
      ],
      "name": "setApprovalForAll",
      "outputs": [],
      "stateMutability": "nonpayable",
      "type": "function"
    },
    {
      "inputs": [
        {
          "internalType": "bytes4",
          "name": "interfaceId",
          "type": "bytes4"
        }
      ],
      "name": "supportsInterface",
      "outputs": [
        {
          "internalType": "bool",
          "name": "",
          "type": "bool"
        }
      ],
      "stateMutability": "view",
      "type": "function"
    },
    {
      "inputs": [],
      "name": "symbol",
      "outputs": [
        {
          "internalType": "string",
          "name": "",
          "type": "string"
        }
      ],
      "stateMutability": "view",
      "type": "function"
    },
    {
      "inputs": [
        {
          "internalType": "uint256",
          "name": "tokenId",
          "type": "uint256"
        }
      ],
      "name": "tokenURI",
      "outputs": [
        {
          "internalType": "string",
          "name": "",
          "type": "string"
        }
      ],
      "stateMutability": "view",
      "type": "function"
    },
    {
      "inputs": [
        {
          "internalType": "address",
          "name": "from",
          "type": "address"
        },
        {
          "internalType": "address",
          "name": "to",
          "type": "address"
        },
        {
          "internalType": "uint256",
          "name": "tokenId",
          "type": "uint256"
        }
      ],
      "name": "transferFrom",
      "outputs": [],
      "stateMutability": "nonpayable",
      "type": "function"
    }
  ],
  "bytecode": "0x60806040523480156200001157600080fd5b5060405162001a0f38038062001a0f833981016040819052620000349162000096565b60408051602080820183526000808352835191820190935282815290916200005d83826200016d565b5060016200006c82826200016d565b5050600780546001600160a01b0319166001600160a01b0393909316929092179091555062000239565b600060208284031215620000a957600080fd5b81516001600160a01b0381168114620000c157600080fd5b9392505050565b634e487b7160e01b600052604160045260246000fd5b600181811c90821680620000f357607f821691505b6020821081036200011457634e487b7160e01b600052602260045260246000fd5b50919050565b601f8211156200016857600081815260208120601f850160051c81016020861015620001435750805b601f850160051c820191505b8181101562000164578281556001016200014f565b5050505b505050565b81516001600160401b03811115620001895762000189620000c8565b620001a1816200019a8454620000de565b846200011a565b602080601f831160018114620001d95760008415620001c05750858301515b600019600386901b1c1916600185901b17855562000164565b600085815260208120601f198616915b828110156200020a57888601518255948401946001909101908401620001e9565b5085821015620002295787850151600019600388901b60f8161c191681555b5050505050600190811b01905550565b6117c680620002496000396000f3fe608060405234801561001057600080fd5b50600436106101005760003560e01c806342966c6811610097578063a22cb46511610066578063a22cb4651461021d578063b88d4fde14610230578063c87b56dd14610243578063e985e9c51461025657600080fd5b806342966c68146101dc5780636352211e146101ef57806370a082311461020257806395d89b411461021557600080fd5b806323b872dd116100d357806323b872dd146101825780632a9443271461019557806333eba49a146101a857806342842e0e146101c957600080fd5b806301ffc9a71461010557806306fdde031461012d578063081812fc14610142578063095ea7b31461016d575b600080fd5b61011861011336600461116c565b610292565b60405190151581526020015b60405180910390f35b6101356102e4565b60405161012491906111d9565b6101556101503660046111ec565b610376565b6040516001600160a01b039091168152602001610124565b61018061017b366004611221565b61039d565b005b61018061019036600461124b565b6104b7565b6101806101a3366004611221565b6104e8565b6101bb6101b6366004611287565b61055d565b604051908152602001610124565b6101806101d736600461124b565b6105a6565b6101806101ea3660046111ec565b6105c1565b6101556101fd3660046111ec565b610607565b6101bb6102103660046112f9565b610667565b6101356106ed565b61018061022b366004611314565b6106fc565b61018061023e366004611366565b61070b565b6101356102513660046111ec565b610743565b610118610264366004611442565b6001600160a01b03918216600090815260056020908152604080832093909416825291909152205460ff1690565b60006001600160e01b031982166380ac58cd60e01b14806102c357506001600160e01b03198216635b5e139f60e01b145b806102de57506301ffc9a760e01b6001600160e01b03198316145b92915050565b6060600080546102f390611475565b80601f016020809104026020016040519081016040528092919081815260200182805461031f90611475565b801561036c5780601f106103415761010080835404028352916020019161036c565b820191906000526020600020905b81548152906001019060200180831161034f57829003601f168201915b5050505050905090565b60006103818261084e565b506000908152600460205260409020546001600160a01b031690565b60006103a882610607565b9050806001600160a01b0316836001600160a01b03160361041a5760405162461bcd60e51b815260206004820152602160248201527f4552433732313a20617070726f76616c20746f2063757272656e74206f776e656044820152603960f91b60648201526084015b60405180910390fd5b336001600160a01b038216148061043657506104368133610264565b6104a85760405162461bcd60e51b815260206004820152603e60248201527f4552433732313a20617070726f76652063616c6c6572206973206e6f7420746f60448201527f6b656e206f776e6572206e6f7220617070726f76656420666f7220616c6c00006064820152608401610411565b6104b283836108ad565b505050565b6104c1338261091b565b6104dd5760405162461bcd60e51b8152600401610411906114af565b6104b2838383610999565b6000818152600260205260409020546001600160a01b031661051d576040516311b4ba6b60e31b815260040160405180910390fd5b600061052882610607565b90506105348184610b35565b336001600160a01b038216146104a8576040516376a80be360e11b815260040160405180910390fd5b600061056d600680546001019055565b600654339061057c8282610b67565b610587818686610b81565b60075461059e906001600160a01b031660016106fc565b949350505050565b6104b28383836040518060200160405280600081525061070b565b6105ca81610607565b6001600160a01b0316336001600160a01b0316146105fb576040516332b0b10960e11b815260040160405180910390fd5b61060481610bcf565b50565b6000818152600260205260408120546001600160a01b0316806102de5760405162461bcd60e51b8152602060048201526018602482015277115490cdcc8c4e881a5b9d985b1a59081d1bdad95b88125160421b6044820152606401610411565b60006001600160a01b0382166106d15760405162461bcd60e51b815260206004820152602960248201527f4552433732313a2061646472657373207a65726f206973206e6f7420612076616044820152683634b21037bbb732b960b91b6064820152608401610411565b506001600160a01b031660009081526003602052604090205490565b6060600180546102f390611475565b610707338383610c6a565b5050565b610715338361091b565b6107315760405162461bcd60e51b8152600401610411906114af565b61073d84848484610d38565b50505050565b606061074e8261084e565b600061076560408051602081019091526000815290565b60008481526008602052604081208054929350909161078390611475565b80601f01602080910402602001604051908101604052809291908181526020018280546107af90611475565b80156107fc5780601f106107d1576101008083540402835291602001916107fc565b820191906000526020600020905b8154815290600101906020018083116107df57829003601f168201915b505050505090508151600003610813579392505050565b80511561084557818160405160200161082d9291906114fd565b60405160208183030381529060405292505050919050565b61059e84610d6b565b6000818152600260205260409020546001600160a01b03166106045760405162461bcd60e51b8152602060048201526018602482015277115490cdcc8c4e881a5b9d985b1a59081d1bdad95b88125160421b6044820152606401610411565b600081815260046020526040902080546001600160a01b0319166001600160a01b03841690811790915581906108e282610607565b6001600160a01b03167f8c5be1e5ebec7d5bd14f71427d1e84f3dd0314c0f7b2291e5b200ac8c7c3b92560405160405180910390a45050565b60008061092783610607565b9050806001600160a01b0316846001600160a01b0316148061096e57506001600160a01b0380821660009081526005602090815260408083209388168352929052205460ff165b8061059e5750836001600160a01b031661098784610376565b6001600160a01b031614949350505050565b826001600160a01b03166109ac82610607565b6001600160a01b031614610a105760405162461bcd60e51b815260206004820152602560248201527f4552433732313a207472616e736665722066726f6d20696e636f72726563742060448201526437bbb732b960d91b6064820152608401610411565b6001600160a01b038216610a725760405162461bcd60e51b8152602060048201526024808201527f4552433732313a207472616e7366657220746f20746865207a65726f206164646044820152637265737360e01b6064820152608401610411565b610a7d6000826108ad565b6001600160a01b0383166000908152600360205260408120805460019290610aa6908490611542565b90915550506001600160a01b0382166000908152600360205260408120805460019290610ad4908490611555565b909155505060008181526002602052604080822080546001600160a01b0319166001600160a01b0386811691821790925591518493918716917fddf252ad1be2c89b69c2b068fc378daa952ba7f163c4a11628f55a4df523b3ef91a4505050565b806001600160a01b0316826001600160a01b0316036107075760405163680683d960e01b815260040160405180910390fd5b610707828260405180602001604052806000815250610ddf565b6000838152600260205260409020546001600160a01b0316610bb6576040516311b4ba6b60e31b815260040160405180910390fd5b600083815260086020526040902061073d8284836115b6565b6000610bda82610607565b9050610be76000836108ad565b6001600160a01b0381166000908152600360205260408120805460019290610c10908490611542565b909155505060008281526002602052604080822080546001600160a01b0319169055518391906001600160a01b038416907fddf252ad1be2c89b69c2b068fc378daa952ba7f163c4a11628f55a4df523b3ef908390a45050565b816001600160a01b0316836001600160a01b031603610ccb5760405162461bcd60e51b815260206004820152601960248201527f4552433732313a20617070726f766520746f2063616c6c6572000000000000006044820152606401610411565b6001600160a01b03838116600081815260056020908152604080832094871680845294825291829020805460ff191686151590811790915591519182527f17307eab39ab6107e8899845ad3d59bd9653f200f220920489ca2b5937696c31910160405180910390a3505050565b610d43848484610999565b610d4f84848484610e12565b61073d5760405162461bcd60e51b815260040161041190611677565b6060610d768261084e565b6000610d8d60408051602081019091526000815290565b90506000815111610dad5760405180602001604052806000815250610dd8565b80610db784610f13565b604051602001610dc89291906114fd565b6040516020818303038152906040525b9392505050565b610de98383611014565b610df66000848484610e12565b6104b25760405162461bcd60e51b815260040161041190611677565b60006001600160a01b0384163b15610f0857604051630a85bd0160e11b81526001600160a01b0385169063150b7a0290610e569033908990889088906004016116c9565b6020604051808303816000875af1925050508015610e91575060408051601f3d908101601f19168201909252610e8e91810190611706565b60015b610eee573d808015610ebf576040519150601f19603f3d011682016040523d82523d6000602084013e610ec4565b606091505b508051600003610ee65760405162461bcd60e51b815260040161041190611677565b805181602001fd5b6001600160e01b031916630a85bd0160e11b14905061059e565b506001949350505050565b606081600003610f3a5750506040805180820190915260018152600360fc1b602082015290565b8160005b8115610f645780610f4e81611723565b9150610f5d9050600a83611752565b9150610f3e565b60008167ffffffffffffffff811115610f7f57610f7f611350565b6040519080825280601f01601f191660200182016040528015610fa9576020820181803683370190505b5090505b841561059e57610fbe600183611542565b9150610fcb600a86611766565b610fd6906030611555565b60f81b818381518110610feb57610feb61177a565b60200101906001600160f81b031916908160001a90535061100d600a86611752565b9450610fad565b6001600160a01b03821661106a5760405162461bcd60e51b815260206004820181905260248201527f4552433732313a206d696e7420746f20746865207a65726f20616464726573736044820152606401610411565b6000818152600260205260409020546001600160a01b0316156110cf5760405162461bcd60e51b815260206004820152601c60248201527f4552433732313a20746f6b656e20616c7265616479206d696e746564000000006044820152606401610411565b6001600160a01b03821660009081526003602052604081208054600192906110f8908490611555565b909155505060008181526002602052604080822080546001600160a01b0319166001600160a01b03861690811790915590518392907fddf252ad1be2c89b69c2b068fc378daa952ba7f163c4a11628f55a4df523b3ef908290a45050565b6001600160e01b03198116811461060457600080fd5b60006020828403121561117e57600080fd5b8135610dd881611156565b60005b838110156111a457818101518382015260200161118c565b50506000910152565b600081518084526111c5816020860160208601611189565b601f01601f19169290920160200192915050565b602081526000610dd860208301846111ad565b6000602082840312156111fe57600080fd5b5035919050565b80356001600160a01b038116811461121c57600080fd5b919050565b6000806040838503121561123457600080fd5b61123d83611205565b946020939093013593505050565b60008060006060848603121561126057600080fd5b61126984611205565b925061127760208501611205565b9150604084013590509250925092565b6000806020838503121561129a57600080fd5b823567ffffffffffffffff808211156112b257600080fd5b818501915085601f8301126112c657600080fd5b8135818111156112d557600080fd5b8660208285010111156112e757600080fd5b60209290920196919550909350505050565b60006020828403121561130b57600080fd5b610dd882611205565b6000806040838503121561132757600080fd5b61133083611205565b91506020830135801515811461134557600080fd5b809150509250929050565b634e487b7160e01b600052604160045260246000fd5b6000806000806080858703121561137c57600080fd5b61138585611205565b935061139360208601611205565b925060408501359150606085013567ffffffffffffffff808211156113b757600080fd5b818701915087601f8301126113cb57600080fd5b8135818111156113dd576113dd611350565b604051601f8201601f19908116603f0116810190838211818310171561140557611405611350565b816040528281528a602084870101111561141e57600080fd5b82602086016020830137600060208483010152809550505050505092959194509250565b6000806040838503121561145557600080fd5b61145e83611205565b915061146c60208401611205565b90509250929050565b600181811c9082168061148957607f821691505b6020821081036114a957634e487b7160e01b600052602260045260246000fd5b50919050565b6020808252602e908201527f4552433732313a2063616c6c6572206973206e6f7420746f6b656e206f776e6560408201526d1c881b9bdc88185c1c1c9bdd995960921b606082015260800190565b6000835161150f818460208801611189565b835190830190611523818360208801611189565b01949350505050565b634e487b7160e01b600052601160045260246000fd5b818103818111156102de576102de61152c565b808201808211156102de576102de61152c565b601f8211156104b257600081815260208120601f850160051c8101602086101561158f5750805b601f850160051c820191505b818110156115ae5782815560010161159b565b505050505050565b67ffffffffffffffff8311156115ce576115ce611350565b6115e2836115dc8354611475565b83611568565b6000601f84116001811461161657600085156115fe5750838201355b600019600387901b1c1916600186901b178355611670565b600083815260209020601f19861690835b828110156116475786850135825560209485019460019092019101611627565b50868210156116645760001960f88860031b161c19848701351681555b505060018560011b0183555b5050505050565b60208082526032908201527f4552433732313a207472616e7366657220746f206e6f6e20455243373231526560408201527131b2b4bb32b91034b6b83632b6b2b73a32b960711b606082015260800190565b6001600160a01b03858116825284166020820152604081018390526080606082018190526000906116fc908301846111ad565b9695505050505050565b60006020828403121561171857600080fd5b8151610dd881611156565b6000600182016117355761173561152c565b5060010190565b634e487b7160e01b600052601260045260246000fd5b6000826117615761176161173c565b500490565b6000826117755761177561173c565b500690565b634e487b7160e01b600052603260045260246000fdfea264697066735822122059772f3f6577cced8862caf1bf18fa655788c6d4239ceba69f7d34ab06d070d164736f6c63430008110033",
  "linkReferences": {},
  "deployedLinkReferences": {}
}