{
  "_format": "hh-sol-artifact-1",
  "contractName": "KBMarket",
  "sourceName": "contracts/KBMarket.sol",
  "abi": [
    {
      "inputs": [],
      "stateMutability": "nonpayable",
      "type": "constructor"
    },
    {
      "anonymous": false,
      "inputs": [
        {
          "indexed": true,
          "internalType": "uint256",
          "name": "itemId",
          "type": "uint256"
        },
        {
          "indexed": true,
          "internalType": "address",
          "name": "nftContract",
          "type": "address"
        },
        {
          "indexed": true,
          "internalType": "uint256",
          "name": "tokenId",
          "type": "uint256"
        },
        {
          "indexed": false,
          "internalType": "address",
          "name": "seller",
          "type": "address"
        },
        {
          "indexed": false,
          "internalType": "address",
          "name": "owner",
          "type": "address"
        },
        {
          "indexed": false,
          "internalType": "uint256",
          "name": "price",
          "type": "uint256"
        },
        {
          "indexed": false,
          "internalType": "bool",
          "name": "sold",
          "type": "bool"
        }
      ],
      "name": "MarketTokenMinted",
      "type": "event"
    },
    {
      "anonymous": false,
      "inputs": [
        {
          "indexed": true,
          "internalType": "address",
          "name": "previousOwner",
          "type": "address"
        },
        {
          "indexed": true,
          "internalType": "address",
          "name": "newOwner",
          "type": "address"
        }
      ],
      "name": "OwnershipTransferred",
      "type": "event"
    },
    {
      "inputs": [
        {
          "internalType": "address",
          "name": "nftContract",
          "type": "address"
        },
        {
          "internalType": "uint256",
          "name": "itemId",
          "type": "uint256"
        }
      ],
      "name": "createMarketSale",
      "outputs": [],
      "stateMutability": "payable",
      "type": "function"
    },
    {
      "inputs": [],
      "name": "fetchItemsCreated",
      "outputs": [
        {
          "components": [
            {
              "internalType": "uint256",
              "name": "itemId",
              "type": "uint256"
            },
            {
              "internalType": "address",
              "name": "nftContract",
              "type": "address"
            },
            {
              "internalType": "uint256",
              "name": "tokenId",
              "type": "uint256"
            },
            {
              "internalType": "address payable",
              "name": "seller",
              "type": "address"
            },
            {
              "internalType": "address payable",
              "name": "owner",
              "type": "address"
            },
            {
              "internalType": "uint256",
              "name": "price",
              "type": "uint256"
            },
            {
              "internalType": "bool",
              "name": "sold",
              "type": "bool"
            }
          ],
          "internalType": "struct KBMarket.MarketToken[]",
          "name": "",
          "type": "tuple[]"
        }
      ],
      "stateMutability": "view",
      "type": "function"
    },
    {
      "inputs": [],
      "name": "fetchMarketTokens",
      "outputs": [
        {
          "components": [
            {
              "internalType": "uint256",
              "name": "itemId",
              "type": "uint256"
            },
            {
              "internalType": "address",
              "name": "nftContract",
              "type": "address"
            },
            {
              "internalType": "uint256",
              "name": "tokenId",
              "type": "uint256"
            },
            {
              "internalType": "address payable",
              "name": "seller",
              "type": "address"
            },
            {
              "internalType": "address payable",
              "name": "owner",
              "type": "address"
            },
            {
              "internalType": "uint256",
              "name": "price",
              "type": "uint256"
            },
            {
              "internalType": "bool",
              "name": "sold",
              "type": "bool"
            }
          ],
          "internalType": "struct KBMarket.MarketToken[]",
          "name": "",
          "type": "tuple[]"
        }
      ],
      "stateMutability": "view",
      "type": "function"
    },
    {
      "inputs": [],
      "name": "fetchMyNFTs",
      "outputs": [
        {
          "components": [
            {
              "internalType": "uint256",
              "name": "itemId",
              "type": "uint256"
            },
            {
              "internalType": "address",
              "name": "nftContract",
              "type": "address"
            },
            {
              "internalType": "uint256",
              "name": "tokenId",
              "type": "uint256"
            },
            {
              "internalType": "address payable",
              "name": "seller",
              "type": "address"
            },
            {
              "internalType": "address payable",
              "name": "owner",
              "type": "address"
            },
            {
              "internalType": "uint256",
              "name": "price",
              "type": "uint256"
            },
            {
              "internalType": "bool",
              "name": "sold",
              "type": "bool"
            }
          ],
          "internalType": "struct KBMarket.MarketToken[]",
          "name": "",
          "type": "tuple[]"
        }
      ],
      "stateMutability": "view",
      "type": "function"
    },
    {
      "inputs": [],
      "name": "getListingPrice",
      "outputs": [
        {
          "internalType": "uint256",
          "name": "",
          "type": "uint256"
        }
      ],
      "stateMutability": "view",
      "type": "function"
    },
    {
      "inputs": [
        {
          "internalType": "address",
          "name": "nftContract",
          "type": "address"
        },
        {
          "internalType": "uint256",
          "name": "tokenId",
          "type": "uint256"
        },
        {
          "internalType": "uint256",
          "name": "price",
          "type": "uint256"
        }
      ],
      "name": "makeMarketItem",
      "outputs": [],
      "stateMutability": "payable",
      "type": "function"
    },
    {
      "inputs": [],
      "name": "owner",
      "outputs": [
        {
          "internalType": "address",
          "name": "",
          "type": "address"
        }
      ],
      "stateMutability": "view",
      "type": "function"
    },
    {
      "inputs": [],
      "name": "renounceOwnership",
      "outputs": [],
      "stateMutability": "nonpayable",
      "type": "function"
    },
    {
      "inputs": [
        {
          "internalType": "uint256",
          "name": "price",
          "type": "uint256"
        }
      ],
      "name": "setListingPrice",
      "outputs": [],
      "stateMutability": "nonpayable",
      "type": "function"
    },
    {
      "inputs": [
        {
          "internalType": "address",
          "name": "newOwner",
          "type": "address"
        }
      ],
      "name": "transferOwnership",
      "outputs": [],
      "stateMutability": "nonpayable",
      "type": "function"
    }
  ],
  "bytecode": "0x6080604052669fdf42f6e4800060045534801561001b57600080fd5b506100253361003c565b600380546001600160a01b0319163317905561008c565b600080546001600160a01b038381166001600160a01b0319831681178455604051919092169283917f8be0079c531659141344cd1fd0a4f28419497f9722a3daafe3b4186f6b6457e09190a35050565b610e4b8061009b6000396000f3fe6080604052600436106100915760003560e01c80638da5cb5b116100595780638da5cb5b14610125578063c23b139e1461014d578063c69bdf7514610160578063f064c32e14610175578063f2fde38b1461018a57600080fd5b806312e8558514610096578063202e3740146100b9578063715018a6146100db5780637a060f56146100f25780637c726b6914610105575b600080fd5b3480156100a257600080fd5b506004546040519081526020015b60405180910390f35b3480156100c557600080fd5b506100ce6101aa565b6040516100b09190610c46565b3480156100e757600080fd5b506100f0610387565b005b6100f0610100366004610cf6565b61039b565b34801561011157600080fd5b506100f0610120366004610d29565b6105e1565b34801561013157600080fd5b506000546040516001600160a01b0390911681526020016100b0565b6100f061015b366004610d42565b6105ee565b34801561016c57600080fd5b506100ce6107a4565b34801561018157600080fd5b506100ce61091d565b34801561019657600080fd5b506100f06101a5366004610d6c565b610ae7565b606060006101b760015490565b905060008060005b8381101561020f5733600560006101d7846001610da4565b81526020810191909152604001600020600401546001600160a01b03160361020757610204600184610da4565b92505b6001016101bf565b5060008267ffffffffffffffff81111561022b5761022b610dbd565b60405190808252806020026020018201604052801561026457816020015b610251610c0a565b8152602001906001900390816102495790505b50905060005b8481101561037e573360056000610282846001610da4565b81526020810191909152604001600020600401546001600160a01b03160361036c5760006005816102b4846001610da4565b81526020808201929092526040908101600090812054808252600580855291839020835160e0810185528154815260018201546001600160a01b0390811696820196909652600282015494810194909452600381015485166060850152600481015490941660808401529083015460a083015260069092015460ff16151560c0820152845191925090819085908790811061035157610351610dd3565b6020908102919091010152610367600186610da4565b945050505b8061037681610de9565b91505061026a565b50949350505050565b61038f610b60565b6103996000610bba565b565b600081116103f05760405162461bcd60e51b815260206004820152601e60248201527f5072696365206d757374206265206174206c65617374206f6e6520776569000060448201526064015b60405180910390fd5b600454341461044d5760405162461bcd60e51b8152602060048201526024808201527f5072696365206d75737420626520657175616c20746f206c697374696e6720706044820152637269636560e01b60648201526084016103e7565b61045b600180546001019055565b600061046660015490565b6040805160e0810182528281526001600160a01b0387811660208084018281528486018a8152336060870181815260006080890181815260a08a018e815260c08b018381528d8452600598899052928c90209a518b55955160018b018054918b166001600160a01b0319928316179055945160028b0155915160038a018054918a1691861691909117905590516004808a01805492909916919094161790965591519286019290925592516006909401805494151560ff199095169490941790935592516323b872dd60e01b81529182015230602482015260448101869052919250906323b872dd90606401600060405180830381600087803b15801561056c57600080fd5b505af1158015610580573d6000803e3d6000fd5b505060408051338152600060208201819052818301879052606082015290518693506001600160a01b038816925084917fcd9b0dfebab7db4dbe70606f69fadc8e987e7c80a65410f0bb5ae8bd72dabba7919081900360800190a450505050565b6105e9610b60565b600455565b6000818152600560208190526040909120908101546002909101543482146106745760405162461bcd60e51b815260206004820152603360248201527f506c65617365207375626d6974207468652061736b696e6720707269636520696044820152726e206f7264657220746f20636f6e74696e756560681b60648201526084016103e7565b6000838152600560205260408082206003015490516001600160a01b03909116913480156108fc02929091818181858888f193505050501580156106bc573d6000803e3d6000fd5b506040516323b872dd60e01b8152306004820152336024820152604481018290526001600160a01b038516906323b872dd90606401600060405180830381600087803b15801561070b57600080fd5b505af115801561071f573d6000803e3d6000fd5b50505060008481526005602052604090206004810180546001600160a01b03191633179055600601805460ff1916600117905550610761600280546001019055565b6003546004546040516001600160a01b039092169181156108fc0291906000818181858888f1935050505015801561079d573d6000803e3d6000fd5b5050505050565b606060006107b160015490565b905060006107be60025490565b6001546107cb9190610e02565b90506000808267ffffffffffffffff8111156107e9576107e9610dbd565b60405190808252806020026020018201604052801561082257816020015b61080f610c0a565b8152602001906001900390816108075790505b50905060005b8481101561037e576000600581610840846001610da4565b81526020810191909152604001600020600401546001600160a01b03160361091557600061086f826001610da4565b600081815260056020818152604092839020835160e0810185528154815260018201546001600160a01b0390811693820193909352600282015494810194909452600381015482166060850152600481015490911660808401529081015460a08301526006015460ff16151560c082015284519192509081908590879081106108fa576108fa610dd3565b6020908102919091010152610910600186610da4565b945050505b600101610828565b6060600061092a60015490565b905060008060005b8381101561098257336005600061094a846001610da4565b81526020810191909152604001600020600301546001600160a01b03160361097a57610977600184610da4565b92505b600101610932565b5060008267ffffffffffffffff81111561099e5761099e610dbd565b6040519080825280602002602001820160405280156109d757816020015b6109c4610c0a565b8152602001906001900390816109bc5790505b50905060005b8481101561037e5733600560006109f5846001610da4565b81526020810191909152604001600020600301546001600160a01b031603610adf576000600581610a27846001610da4565b81526020808201929092526040908101600090812054808252600580855291839020835160e0810185528154815260018201546001600160a01b0390811696820196909652600282015494810194909452600381015485166060850152600481015490941660808401529083015460a083015260069092015460ff16151560c08201528451919250908190859087908110610ac457610ac4610dd3565b6020908102919091010152610ada600186610da4565b945050505b6001016109dd565b610aef610b60565b6001600160a01b038116610b545760405162461bcd60e51b815260206004820152602660248201527f4f776e61626c653a206e6577206f776e657220697320746865207a65726f206160448201526564647265737360d01b60648201526084016103e7565b610b5d81610bba565b50565b6000546001600160a01b031633146103995760405162461bcd60e51b815260206004820181905260248201527f4f776e61626c653a2063616c6c6572206973206e6f7420746865206f776e657260448201526064016103e7565b600080546001600160a01b038381166001600160a01b0319831681178455604051919092169283917f8be0079c531659141344cd1fd0a4f28419497f9722a3daafe3b4186f6b6457e09190a35050565b6040805160e081018252600080825260208201819052918101829052606081018290526080810182905260a0810182905260c081019190915290565b602080825282518282018190526000919060409081850190868401855b82811015610ccd57815180518552868101516001600160a01b039081168887015286820151878701526060808301518216908701526080808301519091169086015260a0808201519086015260c09081015115159085015260e09093019290850190600101610c63565b5091979650505050505050565b80356001600160a01b0381168114610cf157600080fd5b919050565b600080600060608486031215610d0b57600080fd5b610d1484610cda565b95602085013595506040909401359392505050565b600060208284031215610d3b57600080fd5b5035919050565b60008060408385031215610d5557600080fd5b610d5e83610cda565b946020939093013593505050565b600060208284031215610d7e57600080fd5b610d8782610cda565b9392505050565b634e487b7160e01b600052601160045260246000fd5b80820180821115610db757610db7610d8e565b92915050565b634e487b7160e01b600052604160045260246000fd5b634e487b7160e01b600052603260045260246000fd5b600060018201610dfb57610dfb610d8e565b5060010190565b81810381811115610db757610db7610d8e56fea26469706673582212205e9d246e4d0b93efa4b3b163b789880c515084a764a9cee191983e272b6635d264736f6c63430008110033",
  "linkReferences": {},
  "deployedLinkReferences": {}
}