{"contracts/KBMarket.sol":{"KBMarket":{"abi":[{"inputs":[],"stateMutability":"nonpayable","type":"constructor"},{"inputs":[],"name":"ERC721_NotEqualFee","type":"error"},{"inputs":[],"name":"ERC721_NotEqualPrice","type":"error"},{"inputs":[],"name":"ERC721_ZeroPay","type":"error"},{"anonymous":false,"inputs":[{"indexed":true,"internalType":"uint256","name":"itemId","type":"uint256"},{"indexed":true,"internalType":"address","name":"nftContract","type":"address"},{"indexed":true,"internalType":"uint256","name":"tokenId","type":"uint256"},{"indexed":false,"internalType":"address","name":"seller","type":"address"},{"indexed":false,"internalType":"address","name":"owner","type":"address"},{"indexed":false,"internalType":"uint256","name":"price","type":"uint256"},{"indexed":false,"internalType":"bool","name":"sold","type":"bool"}],"name":"MarketTokenMinted","type":"event"},{"anonymous":false,"inputs":[{"indexed":true,"internalType":"address","name":"previousOwner","type":"address"},{"indexed":true,"internalType":"address","name":"newOwner","type":"address"}],"name":"OwnershipTransferred","type":"event"},{"inputs":[{"internalType":"address","name":"nftContract","type":"address"},{"internalType":"uint256","name":"itemId","type":"uint256"}],"name":"createMarketSale","outputs":[],"stateMutability":"payable","type":"function"},{"inputs":[],"name":"fetchItemsCreated","outputs":[{"components":[{"internalType":"uint256","name":"itemId","type":"uint256"},{"internalType":"address","name":"nftContract","type":"address"},{"internalType":"uint256","name":"tokenId","type":"uint256"},{"internalType":"address payable","name":"seller","type":"address"},{"internalType":"address payable","name":"owner","type":"address"},{"internalType":"uint256","name":"price","type":"uint256"},{"internalType":"bool","name":"sold","type":"bool"}],"internalType":"struct KBMarket.MarketToken[]","name":"","type":"tuple[]"}],"stateMutability":"view","type":"function"},{"inputs":[],"name":"fetchMarketTokens","outputs":[{"components":[{"internalType":"uint256","name":"itemId","type":"uint256"},{"internalType":"address","name":"nftContract","type":"address"},{"internalType":"uint256","name":"tokenId","type":"uint256"},{"internalType":"address payable","name":"seller","type":"address"},{"internalType":"address payable","name":"owner","type":"address"},{"internalType":"uint256","name":"price","type":"uint256"},{"internalType":"bool","name":"sold","type":"bool"}],"internalType":"struct KBMarket.MarketToken[]","name":"","type":"tuple[]"}],"stateMutability":"view","type":"function"},{"inputs":[],"name":"fetchMyNFTs","outputs":[{"components":[{"internalType":"uint256","name":"itemId","type":"uint256"},{"internalType":"address","name":"nftContract","type":"address"},{"internalType":"uint256","name":"tokenId","type":"uint256"},{"internalType":"address payable","name":"seller","type":"address"},{"internalType":"address payable","name":"owner","type":"address"},{"internalType":"uint256","name":"price","type":"uint256"},{"internalType":"bool","name":"sold","type":"bool"}],"internalType":"struct KBMarket.MarketToken[]","name":"","type":"tuple[]"}],"stateMutability":"view","type":"function"},{"inputs":[],"name":"getListingPrice","outputs":[{"internalType":"uint256","name":"","type":"uint256"}],"stateMutability":"view","type":"function"},{"inputs":[{"internalType":"address","name":"nftContract","type":"address"},{"internalType":"uint256","name":"tokenId","type":"uint256"},{"internalType":"uint256","name":"price","type":"uint256"}],"name":"makeMarketItem","outputs":[],"stateMutability":"payable","type":"function"},{"inputs":[],"name":"owner","outputs":[{"internalType":"address","name":"","type":"address"}],"stateMutability":"view","type":"function"},{"inputs":[],"name":"renounceOwnership","outputs":[],"stateMutability":"nonpayable","type":"function"},{"inputs":[{"internalType":"uint256","name":"newPrice","type":"uint256"}],"name":"setListingPrice","outputs":[],"stateMutability":"nonpayable","type":"function"},{"inputs":[{"internalType":"address","name":"newOwner","type":"address"}],"name":"transferOwnership","outputs":[],"stateMutability":"nonpayable","type":"function"}],"evm":{"bytecode":{"linkReferences":{},"object":"6080604052669fdf42f6e4800060045534801561001b57600080fd5b506100253361002a565b61007a565b600080546001600160a01b038381166001600160a01b0319831681178455604051919092169283917f8be0079c531659141344cd1fd0a4f28419497f9722a3daafe3b4186f6b6457e09190a35050565b610d08806100896000396000f3fe6080604052600436106100915760003560e01c80638da5cb5b116100595780638da5cb5b14610125578063c23b139e1461014d578063c69bdf7514610160578063f064c32e14610175578063f2fde38b1461018a57600080fd5b806312e8558514610096578063202e3740146100b9578063715018a6146100db5780637a060f56146100f25780637c726b6914610105575b600080fd5b3480156100a257600080fd5b506004546040519081526020015b60405180910390f35b3480156100c557600080fd5b506100ce6101aa565b6040516100b09190610b1c565b3480156100e757600080fd5b506100f061034f565b005b6100f0610100366004610bcc565b610363565b34801561011157600080fd5b506100f0610120366004610bff565b61053a565b34801561013157600080fd5b506000546040516001600160a01b0390911681526020016100b0565b6100f061015b366004610c18565b610547565b34801561016c57600080fd5b506100ce6106b2565b34801561018157600080fd5b506100ce610806565b34801561019657600080fd5b506100f06101a5366004610c42565b6109b8565b606060006101b760015490565b905060008060005b8381101561020f5733600560006101d7846001610c7a565b81526020810191909152604001600020600401546001600160a01b03160361020757610204600184610c7a565b92505b6001016101bf565b5060008267ffffffffffffffff81111561022b5761022b610c93565b60405190808252806020026020018201604052801561026457816020015b610251610ae0565b8152602001906001900390816102495790505b50905060015b8481101561034657600081815260056020526040902060040154336001600160a01b039091160361033e5760008181526005602081815260408084205480855293819020815160e0810183528154815260018201546001600160a01b0390811694820194909452600282015492810192909252600381015483166060830152600481015490921660808201529181015460a08301526006015460ff16151560c08201528351819085908790811061032357610323610ca9565b6020908102919091010152610339600186610c7a565b945050505b60010161026a565b50949350505050565b610357610a36565b6103616000610a90565b565b6000811161038457604051637cd2519760e11b815260040160405180910390fd5b60045434146103a657604051637cd2519760e11b815260040160405180910390fd5b6103b4600180546001019055565b60006103bf60015490565b6040805160e0810182528281526001600160a01b0387811660208084018281528486018a8152336060870181815260006080890181815260a08a018e815260c08b018381528d8452600598899052928c90209a518b55955160018b018054918b166001600160a01b0319928316179055945160028b0155915160038a018054918a1691861691909117905590516004808a01805492909916919094161790965591519286019290925592516006909401805494151560ff199095169490941790935592516323b872dd60e01b81529182015230602482015260448101869052919250906323b872dd90606401600060405180830381600087803b1580156104c557600080fd5b505af11580156104d9573d6000803e3d6000fd5b505060408051338152600060208201819052818301879052606082015290518693506001600160a01b038816925084917fcd9b0dfebab7db4dbe70606f69fadc8e987e7c80a65410f0bb5ae8bd72dabba7919081900360800190a450505050565b610542610a36565b600455565b60008181526005602081905260409091209081015460029091015434821461058257604051631f89347960e31b815260040160405180910390fd5b6000838152600560205260408082206003015490516001600160a01b03909116913480156108fc02929091818181858888f193505050501580156105ca573d6000803e3d6000fd5b506040516323b872dd60e01b8152306004820152336024820152604481018290526001600160a01b038516906323b872dd90606401600060405180830381600087803b15801561061957600080fd5b505af115801561062d573d6000803e3d6000fd5b50505060008481526005602052604090206004810180546001600160a01b03191633179055600601805460ff191660011790555061066f600280546001019055565b6003546004546040516001600160a01b039092169181156108fc0291906000818181858888f193505050501580156106ab573d6000803e3d6000fd5b5050505050565b606060006106bf60015490565b905060006106cc60025490565b6001546106d99190610cbf565b90506000808267ffffffffffffffff8111156106f7576106f7610c93565b60405190808252806020026020018201604052801561073057816020015b61071d610ae0565b8152602001906001900390816107155790505b50905060015b84811015610346576000818152600560205260409020600401546001600160a01b03166107fe57600081815260056020818152604092839020835160e0810185528154815260018201546001600160a01b0390811693820193909352600282015494810194909452600381015482166060850152600481015490911660808401529081015460a08301526006015460ff16151560c0820152825181908490869081106107e4576107e4610ca9565b60209081029190910101526107fa600185610c7a565b9350505b600101610736565b6060600061081360015490565b90506000803360015b84811015610877576000600581610834846001610c7a565b81526020810191909152604001600020600301546001600160a01b0390811691508316810361087157610868600186610c7a565b94508160010191505b5061081c565b5060008367ffffffffffffffff81111561089357610893610c93565b6040519080825280602002602001820160405280156108cc57816020015b6108b9610ae0565b8152602001906001900390816108b15790505b50905060015b858110156109ae576000818152600560205260409020600301546001600160a01b03163381036109a55760008281526005602081815260408084205480855293819020815160e0810183528154815260018201546001600160a01b0390811694820194909452600282015492810192909252600381015483166060830152600481015490921660808201529181015460a08301526006015460ff16151560c08201528451819086908990811061098a5761098a610ca9565b60209081029190910101526109a0600188610c7a565b965050505b506001016108d2565b5095945050505050565b6109c0610a36565b6001600160a01b038116610a2a5760405162461bcd60e51b815260206004820152602660248201527f4f776e61626c653a206e6577206f776e657220697320746865207a65726f206160448201526564647265737360d01b60648201526084015b60405180910390fd5b610a3381610a90565b50565b6000546001600160a01b031633146103615760405162461bcd60e51b815260206004820181905260248201527f4f776e61626c653a2063616c6c6572206973206e6f7420746865206f776e65726044820152606401610a21565b600080546001600160a01b038381166001600160a01b0319831681178455604051919092169283917f8be0079c531659141344cd1fd0a4f28419497f9722a3daafe3b4186f6b6457e09190a35050565b6040805160e081018252600080825260208201819052918101829052606081018290526080810182905260a0810182905260c081019190915290565b602080825282518282018190526000919060409081850190868401855b82811015610ba357815180518552868101516001600160a01b039081168887015286820151878701526060808301518216908701526080808301519091169086015260a0808201519086015260c09081015115159085015260e09093019290850190600101610b39565b5091979650505050505050565b80356001600160a01b0381168114610bc757600080fd5b919050565b600080600060608486031215610be157600080fd5b610bea84610bb0565b95602085013595506040909401359392505050565b600060208284031215610c1157600080fd5b5035919050565b60008060408385031215610c2b57600080fd5b610c3483610bb0565b946020939093013593505050565b600060208284031215610c5457600080fd5b610c5d82610bb0565b9392505050565b634e487b7160e01b600052601160045260246000fd5b80820180821115610c8d57610c8d610c64565b92915050565b634e487b7160e01b600052604160045260246000fd5b634e487b7160e01b600052603260045260246000fd5b81810381811115610c8d57610c8d610c6456fea264697066735822122026b1f3218ade1eaa7c8af460d96e40e3229de438991246545e04505dda4907d564736f6c63430008110033","opcodes":"PUSH1 0x80 PUSH1 0x40 MSTORE PUSH7 0x9FDF42F6E48000 PUSH1 0x4 SSTORE CALLVALUE DUP1 ISZERO PUSH2 0x1B JUMPI PUSH1 0x0 DUP1 REVERT JUMPDEST POP PUSH2 0x25 CALLER PUSH2 0x2A JUMP JUMPDEST PUSH2 0x7A JUMP JUMPDEST PUSH1 0x0 DUP1 SLOAD PUSH1 0x1 PUSH1 0x1 PUSH1 0xA0 SHL SUB DUP4 DUP2 AND PUSH1 0x1 PUSH1 0x1 PUSH1 0xA0 SHL SUB NOT DUP4 AND DUP2 OR DUP5 SSTORE PUSH1 0x40 MLOAD SWAP2 SWAP1 SWAP3 AND SWAP3 DUP4 SWAP2 PUSH32 0x8BE0079C531659141344CD1FD0A4F28419497F9722A3DAAFE3B4186F6B6457E0 SWAP2 SWAP1 LOG3 POP POP JUMP JUMPDEST PUSH2 0xD08 DUP1 PUSH2 0x89 PUSH1 0x0 CODECOPY PUSH1 0x0 RETURN INVALID PUSH1 0x80 PUSH1 0x40 MSTORE PUSH1 0x4 CALLDATASIZE LT PUSH2 0x91 JUMPI PUSH1 0x0 CALLDATALOAD PUSH1 0xE0 SHR DUP1 PUSH4 0x8DA5CB5B GT PUSH2 0x59 JUMPI DUP1 PUSH4 0x8DA5CB5B EQ PUSH2 0x125 JUMPI DUP1 PUSH4 0xC23B139E EQ PUSH2 0x14D JUMPI DUP1 PUSH4 0xC69BDF75 EQ PUSH2 0x160 JUMPI DUP1 PUSH4 0xF064C32E EQ PUSH2 0x175 JUMPI DUP1 PUSH4 0xF2FDE38B EQ PUSH2 0x18A JUMPI PUSH1 0x0 DUP1 REVERT JUMPDEST DUP1 PUSH4 0x12E85585 EQ PUSH2 0x96 JUMPI DUP1 PUSH4 0x202E3740 EQ PUSH2 0xB9 JUMPI DUP1 PUSH4 0x715018A6 EQ PUSH2 0xDB JUMPI DUP1 PUSH4 0x7A060F56 EQ PUSH2 0xF2 JUMPI DUP1 PUSH4 0x7C726B69 EQ PUSH2 0x105 JUMPI JUMPDEST PUSH1 0x0 DUP1 REVERT JUMPDEST CALLVALUE DUP1 ISZERO PUSH2 0xA2 JUMPI PUSH1 0x0 DUP1 REVERT JUMPDEST POP PUSH1 0x4 SLOAD PUSH1 0x40 MLOAD SWAP1 DUP2 MSTORE PUSH1 0x20 ADD JUMPDEST PUSH1 0x40 MLOAD DUP1 SWAP2 SUB SWAP1 RETURN JUMPDEST CALLVALUE DUP1 ISZERO PUSH2 0xC5 JUMPI PUSH1 0x0 DUP1 REVERT JUMPDEST POP PUSH2 0xCE PUSH2 0x1AA JUMP JUMPDEST PUSH1 0x40 MLOAD PUSH2 0xB0 SWAP2 SWAP1 PUSH2 0xB1C JUMP JUMPDEST CALLVALUE DUP1 ISZERO PUSH2 0xE7 JUMPI PUSH1 0x0 DUP1 REVERT JUMPDEST POP PUSH2 0xF0 PUSH2 0x34F JUMP JUMPDEST STOP JUMPDEST PUSH2 0xF0 PUSH2 0x100 CALLDATASIZE PUSH1 0x4 PUSH2 0xBCC JUMP JUMPDEST PUSH2 0x363 JUMP JUMPDEST CALLVALUE DUP1 ISZERO PUSH2 0x111 JUMPI PUSH1 0x0 DUP1 REVERT JUMPDEST POP PUSH2 0xF0 PUSH2 0x120 CALLDATASIZE PUSH1 0x4 PUSH2 0xBFF JUMP JUMPDEST PUSH2 0x53A JUMP JUMPDEST CALLVALUE DUP1 ISZERO PUSH2 0x131 JUMPI PUSH1 0x0 DUP1 REVERT JUMPDEST POP PUSH1 0x0 SLOAD PUSH1 0x40 MLOAD PUSH1 0x1 PUSH1 0x1 PUSH1 0xA0 SHL SUB SWAP1 SWAP2 AND DUP2 MSTORE PUSH1 0x20 ADD PUSH2 0xB0 JUMP JUMPDEST PUSH2 0xF0 PUSH2 0x15B CALLDATASIZE PUSH1 0x4 PUSH2 0xC18 JUMP JUMPDEST PUSH2 0x547 JUMP JUMPDEST CALLVALUE DUP1 ISZERO PUSH2 0x16C JUMPI PUSH1 0x0 DUP1 REVERT JUMPDEST POP PUSH2 0xCE PUSH2 0x6B2 JUMP JUMPDEST CALLVALUE DUP1 ISZERO PUSH2 0x181 JUMPI PUSH1 0x0 DUP1 REVERT JUMPDEST POP PUSH2 0xCE PUSH2 0x806 JUMP JUMPDEST CALLVALUE DUP1 ISZERO PUSH2 0x196 JUMPI PUSH1 0x0 DUP1 REVERT JUMPDEST POP PUSH2 0xF0 PUSH2 0x1A5 CALLDATASIZE PUSH1 0x4 PUSH2 0xC42 JUMP JUMPDEST PUSH2 0x9B8 JUMP JUMPDEST PUSH1 0x60 PUSH1 0x0 PUSH2 0x1B7 PUSH1 0x1 SLOAD SWAP1 JUMP JUMPDEST SWAP1 POP PUSH1 0x0 DUP1 PUSH1 0x0 JUMPDEST DUP4 DUP2 LT ISZERO PUSH2 0x20F JUMPI CALLER PUSH1 0x5 PUSH1 0x0 PUSH2 0x1D7 DUP5 PUSH1 0x1 PUSH2 0xC7A JUMP JUMPDEST DUP2 MSTORE PUSH1 0x20 DUP2 ADD SWAP2 SWAP1 SWAP2 MSTORE PUSH1 0x40 ADD PUSH1 0x0 KECCAK256 PUSH1 0x4 ADD SLOAD PUSH1 0x1 PUSH1 0x1 PUSH1 0xA0 SHL SUB AND SUB PUSH2 0x207 JUMPI PUSH2 0x204 PUSH1 0x1 DUP5 PUSH2 0xC7A JUMP JUMPDEST SWAP3 POP JUMPDEST PUSH1 0x1 ADD PUSH2 0x1BF JUMP JUMPDEST POP PUSH1 0x0 DUP3 PUSH8 0xFFFFFFFFFFFFFFFF DUP2 GT ISZERO PUSH2 0x22B JUMPI PUSH2 0x22B PUSH2 0xC93 JUMP JUMPDEST PUSH1 0x40 MLOAD SWAP1 DUP1 DUP3 MSTORE DUP1 PUSH1 0x20 MUL PUSH1 0x20 ADD DUP3 ADD PUSH1 0x40 MSTORE DUP1 ISZERO PUSH2 0x264 JUMPI DUP2 PUSH1 0x20 ADD JUMPDEST PUSH2 0x251 PUSH2 0xAE0 JUMP JUMPDEST DUP2 MSTORE PUSH1 0x20 ADD SWAP1 PUSH1 0x1 SWAP1 SUB SWAP1 DUP2 PUSH2 0x249 JUMPI SWAP1 POP JUMPDEST POP SWAP1 POP PUSH1 0x1 JUMPDEST DUP5 DUP2 LT ISZERO PUSH2 0x346 JUMPI PUSH1 0x0 DUP2 DUP2 MSTORE PUSH1 0x5 PUSH1 0x20 MSTORE PUSH1 0x40 SWAP1 KECCAK256 PUSH1 0x4 ADD SLOAD CALLER PUSH1 0x1 PUSH1 0x1 PUSH1 0xA0 SHL SUB SWAP1 SWAP2 AND SUB PUSH2 0x33E JUMPI PUSH1 0x0 DUP2 DUP2 MSTORE PUSH1 0x5 PUSH1 0x20 DUP2 DUP2 MSTORE PUSH1 0x40 DUP1 DUP5 KECCAK256 SLOAD DUP1 DUP6 MSTORE SWAP4 DUP2 SWAP1 KECCAK256 DUP2 MLOAD PUSH1 0xE0 DUP2 ADD DUP4 MSTORE DUP2 SLOAD DUP2 MSTORE PUSH1 0x1 DUP3 ADD SLOAD PUSH1 0x1 PUSH1 0x1 PUSH1 0xA0 SHL SUB SWAP1 DUP2 AND SWAP5 DUP3 ADD SWAP5 SWAP1 SWAP5 MSTORE PUSH1 0x2 DUP3 ADD SLOAD SWAP3 DUP2 ADD SWAP3 SWAP1 SWAP3 MSTORE PUSH1 0x3 DUP2 ADD SLOAD DUP4 AND PUSH1 0x60 DUP4 ADD MSTORE PUSH1 0x4 DUP2 ADD SLOAD SWAP1 SWAP3 AND PUSH1 0x80 DUP3 ADD MSTORE SWAP2 DUP2 ADD SLOAD PUSH1 0xA0 DUP4 ADD MSTORE PUSH1 0x6 ADD SLOAD PUSH1 0xFF AND ISZERO ISZERO PUSH1 0xC0 DUP3 ADD MSTORE DUP4 MLOAD DUP2 SWAP1 DUP6 SWAP1 DUP8 SWAP1 DUP2 LT PUSH2 0x323 JUMPI PUSH2 0x323 PUSH2 0xCA9 JUMP JUMPDEST PUSH1 0x20 SWAP1 DUP2 MUL SWAP2 SWAP1 SWAP2 ADD ADD MSTORE PUSH2 0x339 PUSH1 0x1 DUP7 PUSH2 0xC7A JUMP JUMPDEST SWAP5 POP POP POP JUMPDEST PUSH1 0x1 ADD PUSH2 0x26A JUMP JUMPDEST POP SWAP5 SWAP4 POP POP POP POP JUMP JUMPDEST PUSH2 0x357 PUSH2 0xA36 JUMP JUMPDEST PUSH2 0x361 PUSH1 0x0 PUSH2 0xA90 JUMP JUMPDEST JUMP JUMPDEST PUSH1 0x0 DUP2 GT PUSH2 0x384 JUMPI PUSH1 0x40 MLOAD PUSH4 0x7CD25197 PUSH1 0xE1 SHL DUP2 MSTORE PUSH1 0x4 ADD PUSH1 0x40 MLOAD DUP1 SWAP2 SUB SWAP1 REVERT JUMPDEST PUSH1 0x4 SLOAD CALLVALUE EQ PUSH2 0x3A6 JUMPI PUSH1 0x40 MLOAD PUSH4 0x7CD25197 PUSH1 0xE1 SHL DUP2 MSTORE PUSH1 0x4 ADD PUSH1 0x40 MLOAD DUP1 SWAP2 SUB SWAP1 REVERT JUMPDEST PUSH2 0x3B4 PUSH1 0x1 DUP1 SLOAD PUSH1 0x1 ADD SWAP1 SSTORE JUMP JUMPDEST PUSH1 0x0 PUSH2 0x3BF PUSH1 0x1 SLOAD SWAP1 JUMP JUMPDEST PUSH1 0x40 DUP1 MLOAD PUSH1 0xE0 DUP2 ADD DUP3 MSTORE DUP3 DUP2 MSTORE PUSH1 0x1 PUSH1 0x1 PUSH1 0xA0 SHL SUB DUP8 DUP2 AND PUSH1 0x20 DUP1 DUP5 ADD DUP3 DUP2 MSTORE DUP5 DUP7 ADD DUP11 DUP2 MSTORE CALLER PUSH1 0x60 DUP8 ADD DUP2 DUP2 MSTORE PUSH1 0x0 PUSH1 0x80 DUP10 ADD DUP2 DUP2 MSTORE PUSH1 0xA0 DUP11 ADD DUP15 DUP2 MSTORE PUSH1 0xC0 DUP12 ADD DUP4 DUP2 MSTORE DUP14 DUP5 MSTORE PUSH1 0x5 SWAP9 DUP10 SWAP1 MSTORE SWAP3 DUP13 SWAP1 KECCAK256 SWAP11 MLOAD DUP12 SSTORE SWAP6 MLOAD PUSH1 0x1 DUP12 ADD DUP1 SLOAD SWAP2 DUP12 AND PUSH1 0x1 PUSH1 0x1 PUSH1 0xA0 SHL SUB NOT SWAP3 DUP4 AND OR SWAP1 SSTORE SWAP5 MLOAD PUSH1 0x2 DUP12 ADD SSTORE SWAP2 MLOAD PUSH1 0x3 DUP11 ADD DUP1 SLOAD SWAP2 DUP11 AND SWAP2 DUP7 AND SWAP2 SWAP1 SWAP2 OR SWAP1 SSTORE SWAP1 MLOAD PUSH1 0x4 DUP1 DUP11 ADD DUP1 SLOAD SWAP3 SWAP1 SWAP10 AND SWAP2 SWAP1 SWAP5 AND OR SWAP1 SWAP7 SSTORE SWAP2 MLOAD SWAP3 DUP7 ADD SWAP3 SWAP1 SWAP3 SSTORE SWAP3 MLOAD PUSH1 0x6 SWAP1 SWAP5 ADD DUP1 SLOAD SWAP5 ISZERO ISZERO PUSH1 0xFF NOT SWAP1 SWAP6 AND SWAP5 SWAP1 SWAP5 OR SWAP1 SWAP4 SSTORE SWAP3 MLOAD PUSH4 0x23B872DD PUSH1 0xE0 SHL DUP2 MSTORE SWAP2 DUP3 ADD MSTORE ADDRESS PUSH1 0x24 DUP3 ADD MSTORE PUSH1 0x44 DUP2 ADD DUP7 SWAP1 MSTORE SWAP2 SWAP3 POP SWAP1 PUSH4 0x23B872DD SWAP1 PUSH1 0x64 ADD PUSH1 0x0 PUSH1 0x40 MLOAD DUP1 DUP4 SUB DUP2 PUSH1 0x0 DUP8 DUP1 EXTCODESIZE ISZERO DUP1 ISZERO PUSH2 0x4C5 JUMPI PUSH1 0x0 DUP1 REVERT JUMPDEST POP GAS CALL ISZERO DUP1 ISZERO PUSH2 0x4D9 JUMPI RETURNDATASIZE PUSH1 0x0 DUP1 RETURNDATACOPY RETURNDATASIZE PUSH1 0x0 REVERT JUMPDEST POP POP PUSH1 0x40 DUP1 MLOAD CALLER DUP2 MSTORE PUSH1 0x0 PUSH1 0x20 DUP3 ADD DUP2 SWAP1 MSTORE DUP2 DUP4 ADD DUP8 SWAP1 MSTORE PUSH1 0x60 DUP3 ADD MSTORE SWAP1 MLOAD DUP7 SWAP4 POP PUSH1 0x1 PUSH1 0x1 PUSH1 0xA0 SHL SUB DUP9 AND SWAP3 POP DUP5 SWAP2 PUSH32 0xCD9B0DFEBAB7DB4DBE70606F69FADC8E987E7C80A65410F0BB5AE8BD72DABBA7 SWAP2 SWAP1 DUP2 SWAP1 SUB PUSH1 0x80 ADD SWAP1 LOG4 POP POP POP POP JUMP JUMPDEST PUSH2 0x542 PUSH2 0xA36 JUMP JUMPDEST PUSH1 0x4 SSTORE JUMP JUMPDEST PUSH1 0x0 DUP2 DUP2 MSTORE PUSH1 0x5 PUSH1 0x20 DUP2 SWAP1 MSTORE PUSH1 0x40 SWAP1 SWAP2 KECCAK256 SWAP1 DUP2 ADD SLOAD PUSH1 0x2 SWAP1 SWAP2 ADD SLOAD CALLVALUE DUP3 EQ PUSH2 0x582 JUMPI PUSH1 0x40 MLOAD PUSH4 0x1F893479 PUSH1 0xE3 SHL DUP2 MSTORE PUSH1 0x4 ADD PUSH1 0x40 MLOAD DUP1 SWAP2 SUB SWAP1 REVERT JUMPDEST PUSH1 0x0 DUP4 DUP2 MSTORE PUSH1 0x5 PUSH1 0x20 MSTORE PUSH1 0x40 DUP1 DUP3 KECCAK256 PUSH1 0x3 ADD SLOAD SWAP1 MLOAD PUSH1 0x1 PUSH1 0x1 PUSH1 0xA0 SHL SUB SWAP1 SWAP2 AND SWAP2 CALLVALUE DUP1 ISZERO PUSH2 0x8FC MUL SWAP3 SWAP1 SWAP2 DUP2 DUP2 DUP2 DUP6 DUP9 DUP9 CALL SWAP4 POP POP POP POP ISZERO DUP1 ISZERO PUSH2 0x5CA JUMPI RETURNDATASIZE PUSH1 0x0 DUP1 RETURNDATACOPY RETURNDATASIZE PUSH1 0x0 REVERT JUMPDEST POP PUSH1 0x40 MLOAD PUSH4 0x23B872DD PUSH1 0xE0 SHL DUP2 MSTORE ADDRESS PUSH1 0x4 DUP3 ADD MSTORE CALLER PUSH1 0x24 DUP3 ADD MSTORE PUSH1 0x44 DUP2 ADD DUP3 SWAP1 MSTORE PUSH1 0x1 PUSH1 0x1 PUSH1 0xA0 SHL SUB DUP6 AND SWAP1 PUSH4 0x23B872DD SWAP1 PUSH1 0x64 ADD PUSH1 0x0 PUSH1 0x40 MLOAD DUP1 DUP4 SUB DUP2 PUSH1 0x0 DUP8 DUP1 EXTCODESIZE ISZERO DUP1 ISZERO PUSH2 0x619 JUMPI PUSH1 0x0 DUP1 REVERT JUMPDEST POP GAS CALL ISZERO DUP1 ISZERO PUSH2 0x62D JUMPI RETURNDATASIZE PUSH1 0x0 DUP1 RETURNDATACOPY RETURNDATASIZE PUSH1 0x0 REVERT JUMPDEST POP POP POP PUSH1 0x0 DUP5 DUP2 MSTORE PUSH1 0x5 PUSH1 0x20 MSTORE PUSH1 0x40 SWAP1 KECCAK256 PUSH1 0x4 DUP2 ADD DUP1 SLOAD PUSH1 0x1 PUSH1 0x1 PUSH1 0xA0 SHL SUB NOT AND CALLER OR SWAP1 SSTORE PUSH1 0x6 ADD DUP1 SLOAD PUSH1 0xFF NOT AND PUSH1 0x1 OR SWAP1 SSTORE POP PUSH2 0x66F PUSH1 0x2 DUP1 SLOAD PUSH1 0x1 ADD SWAP1 SSTORE JUMP JUMPDEST PUSH1 0x3 SLOAD PUSH1 0x4 SLOAD PUSH1 0x40 MLOAD PUSH1 0x1 PUSH1 0x1 PUSH1 0xA0 SHL SUB SWAP1 SWAP3 AND SWAP2 DUP2 ISZERO PUSH2 0x8FC MUL SWAP2 SWAP1 PUSH1 0x0 DUP2 DUP2 DUP2 DUP6 DUP9 DUP9 CALL SWAP4 POP POP POP POP ISZERO DUP1 ISZERO PUSH2 0x6AB JUMPI RETURNDATASIZE PUSH1 0x0 DUP1 RETURNDATACOPY RETURNDATASIZE PUSH1 0x0 REVERT JUMPDEST POP POP POP POP POP JUMP JUMPDEST PUSH1 0x60 PUSH1 0x0 PUSH2 0x6BF PUSH1 0x1 SLOAD SWAP1 JUMP JUMPDEST SWAP1 POP PUSH1 0x0 PUSH2 0x6CC PUSH1 0x2 SLOAD SWAP1 JUMP JUMPDEST PUSH1 0x1 SLOAD PUSH2 0x6D9 SWAP2 SWAP1 PUSH2 0xCBF JUMP JUMPDEST SWAP1 POP PUSH1 0x0 DUP1 DUP3 PUSH8 0xFFFFFFFFFFFFFFFF DUP2 GT ISZERO PUSH2 0x6F7 JUMPI PUSH2 0x6F7 PUSH2 0xC93 JUMP JUMPDEST PUSH1 0x40 MLOAD SWAP1 DUP1 DUP3 MSTORE DUP1 PUSH1 0x20 MUL PUSH1 0x20 ADD DUP3 ADD PUSH1 0x40 MSTORE DUP1 ISZERO PUSH2 0x730 JUMPI DUP2 PUSH1 0x20 ADD JUMPDEST PUSH2 0x71D PUSH2 0xAE0 JUMP JUMPDEST DUP2 MSTORE PUSH1 0x20 ADD SWAP1 PUSH1 0x1 SWAP1 SUB SWAP1 DUP2 PUSH2 0x715 JUMPI SWAP1 POP JUMPDEST POP SWAP1 POP PUSH1 0x1 JUMPDEST DUP5 DUP2 LT ISZERO PUSH2 0x346 JUMPI PUSH1 0x0 DUP2 DUP2 MSTORE PUSH1 0x5 PUSH1 0x20 MSTORE PUSH1 0x40 SWAP1 KECCAK256 PUSH1 0x4 ADD SLOAD PUSH1 0x1 PUSH1 0x1 PUSH1 0xA0 SHL SUB AND PUSH2 0x7FE JUMPI PUSH1 0x0 DUP2 DUP2 MSTORE PUSH1 0x5 PUSH1 0x20 DUP2 DUP2 MSTORE PUSH1 0x40 SWAP3 DUP4 SWAP1 KECCAK256 DUP4 MLOAD PUSH1 0xE0 DUP2 ADD DUP6 MSTORE DUP2 SLOAD DUP2 MSTORE PUSH1 0x1 DUP3 ADD SLOAD PUSH1 0x1 PUSH1 0x1 PUSH1 0xA0 SHL SUB SWAP1 DUP2 AND SWAP4 DUP3 ADD SWAP4 SWAP1 SWAP4 MSTORE PUSH1 0x2 DUP3 ADD SLOAD SWAP5 DUP2 ADD SWAP5 SWAP1 SWAP5 MSTORE PUSH1 0x3 DUP2 ADD SLOAD DUP3 AND PUSH1 0x60 DUP6 ADD MSTORE PUSH1 0x4 DUP2 ADD SLOAD SWAP1 SWAP2 AND PUSH1 0x80 DUP5 ADD MSTORE SWAP1 DUP2 ADD SLOAD PUSH1 0xA0 DUP4 ADD MSTORE PUSH1 0x6 ADD SLOAD PUSH1 0xFF AND ISZERO ISZERO PUSH1 0xC0 DUP3 ADD MSTORE DUP3 MLOAD DUP2 SWAP1 DUP5 SWAP1 DUP7 SWAP1 DUP2 LT PUSH2 0x7E4 JUMPI PUSH2 0x7E4 PUSH2 0xCA9 JUMP JUMPDEST PUSH1 0x20 SWAP1 DUP2 MUL SWAP2 SWAP1 SWAP2 ADD ADD MSTORE PUSH2 0x7FA PUSH1 0x1 DUP6 PUSH2 0xC7A JUMP JUMPDEST SWAP4 POP POP JUMPDEST PUSH1 0x1 ADD PUSH2 0x736 JUMP JUMPDEST PUSH1 0x60 PUSH1 0x0 PUSH2 0x813 PUSH1 0x1 SLOAD SWAP1 JUMP JUMPDEST SWAP1 POP PUSH1 0x0 DUP1 CALLER PUSH1 0x1 JUMPDEST DUP5 DUP2 LT ISZERO PUSH2 0x877 JUMPI PUSH1 0x0 PUSH1 0x5 DUP2 PUSH2 0x834 DUP5 PUSH1 0x1 PUSH2 0xC7A JUMP JUMPDEST DUP2 MSTORE PUSH1 0x20 DUP2 ADD SWAP2 SWAP1 SWAP2 MSTORE PUSH1 0x40 ADD PUSH1 0x0 KECCAK256 PUSH1 0x3 ADD SLOAD PUSH1 0x1 PUSH1 0x1 PUSH1 0xA0 SHL SUB SWAP1 DUP2 AND SWAP2 POP DUP4 AND DUP2 SUB PUSH2 0x871 JUMPI PUSH2 0x868 PUSH1 0x1 DUP7 PUSH2 0xC7A JUMP JUMPDEST SWAP5 POP DUP2 PUSH1 0x1 ADD SWAP2 POP JUMPDEST POP PUSH2 0x81C JUMP JUMPDEST POP PUSH1 0x0 DUP4 PUSH8 0xFFFFFFFFFFFFFFFF DUP2 GT ISZERO PUSH2 0x893 JUMPI PUSH2 0x893 PUSH2 0xC93 JUMP JUMPDEST PUSH1 0x40 MLOAD SWAP1 DUP1 DUP3 MSTORE DUP1 PUSH1 0x20 MUL PUSH1 0x20 ADD DUP3 ADD PUSH1 0x40 MSTORE DUP1 ISZERO PUSH2 0x8CC JUMPI DUP2 PUSH1 0x20 ADD JUMPDEST PUSH2 0x8B9 PUSH2 0xAE0 JUMP JUMPDEST DUP2 MSTORE PUSH1 0x20 ADD SWAP1 PUSH1 0x1 SWAP1 SUB SWAP1 DUP2 PUSH2 0x8B1 JUMPI SWAP1 POP JUMPDEST POP SWAP1 POP PUSH1 0x1 JUMPDEST DUP6 DUP2 LT ISZERO PUSH2 0x9AE JUMPI PUSH1 0x0 DUP2 DUP2 MSTORE PUSH1 0x5 PUSH1 0x20 MSTORE PUSH1 0x40 SWAP1 KECCAK256 PUSH1 0x3 ADD SLOAD PUSH1 0x1 PUSH1 0x1 PUSH1 0xA0 SHL SUB AND CALLER DUP2 SUB PUSH2 0x9A5 JUMPI PUSH1 0x0 DUP3 DUP2 MSTORE PUSH1 0x5 PUSH1 0x20 DUP2 DUP2 MSTORE PUSH1 0x40 DUP1 DUP5 KECCAK256 SLOAD DUP1 DUP6 MSTORE SWAP4 DUP2 SWAP1 KECCAK256 DUP2 MLOAD PUSH1 0xE0 DUP2 ADD DUP4 MSTORE DUP2 SLOAD DUP2 MSTORE PUSH1 0x1 DUP3 ADD SLOAD PUSH1 0x1 PUSH1 0x1 PUSH1 0xA0 SHL SUB SWAP1 DUP2 AND SWAP5 DUP3 ADD SWAP5 SWAP1 SWAP5 MSTORE PUSH1 0x2 DUP3 ADD SLOAD SWAP3 DUP2 ADD SWAP3 SWAP1 SWAP3 MSTORE PUSH1 0x3 DUP2 ADD SLOAD DUP4 AND PUSH1 0x60 DUP4 ADD MSTORE PUSH1 0x4 DUP2 ADD SLOAD SWAP1 SWAP3 AND PUSH1 0x80 DUP3 ADD MSTORE SWAP2 DUP2 ADD SLOAD PUSH1 0xA0 DUP4 ADD MSTORE PUSH1 0x6 ADD SLOAD PUSH1 0xFF AND ISZERO ISZERO PUSH1 0xC0 DUP3 ADD MSTORE DUP5 MLOAD DUP2 SWAP1 DUP7 SWAP1 DUP10 SWAP1 DUP2 LT PUSH2 0x98A JUMPI PUSH2 0x98A PUSH2 0xCA9 JUMP JUMPDEST PUSH1 0x20 SWAP1 DUP2 MUL SWAP2 SWAP1 SWAP2 ADD ADD MSTORE PUSH2 0x9A0 PUSH1 0x1 DUP9 PUSH2 0xC7A JUMP JUMPDEST SWAP7 POP POP POP JUMPDEST POP PUSH1 0x1 ADD PUSH2 0x8D2 JUMP JUMPDEST POP SWAP6 SWAP5 POP POP POP POP POP JUMP JUMPDEST PUSH2 0x9C0 PUSH2 0xA36 JUMP JUMPDEST PUSH1 0x1 PUSH1 0x1 PUSH1 0xA0 SHL SUB DUP2 AND PUSH2 0xA2A JUMPI PUSH1 0x40 MLOAD PUSH3 0x461BCD PUSH1 0xE5 SHL DUP2 MSTORE PUSH1 0x20 PUSH1 0x4 DUP3 ADD MSTORE PUSH1 0x26 PUSH1 0x24 DUP3 ADD MSTORE PUSH32 0x4F776E61626C653A206E6577206F776E657220697320746865207A65726F2061 PUSH1 0x44 DUP3 ADD MSTORE PUSH6 0x646472657373 PUSH1 0xD0 SHL PUSH1 0x64 DUP3 ADD MSTORE PUSH1 0x84 ADD JUMPDEST PUSH1 0x40 MLOAD DUP1 SWAP2 SUB SWAP1 REVERT JUMPDEST PUSH2 0xA33 DUP2 PUSH2 0xA90 JUMP JUMPDEST POP JUMP JUMPDEST PUSH1 0x0 SLOAD PUSH1 0x1 PUSH1 0x1 PUSH1 0xA0 SHL SUB AND CALLER EQ PUSH2 0x361 JUMPI PUSH1 0x40 MLOAD PUSH3 0x461BCD PUSH1 0xE5 SHL DUP2 MSTORE PUSH1 0x20 PUSH1 0x4 DUP3 ADD DUP2 SWAP1 MSTORE PUSH1 0x24 DUP3 ADD MSTORE PUSH32 0x4F776E61626C653A2063616C6C6572206973206E6F7420746865206F776E6572 PUSH1 0x44 DUP3 ADD MSTORE PUSH1 0x64 ADD PUSH2 0xA21 JUMP JUMPDEST PUSH1 0x0 DUP1 SLOAD PUSH1 0x1 PUSH1 0x1 PUSH1 0xA0 SHL SUB DUP4 DUP2 AND PUSH1 0x1 PUSH1 0x1 PUSH1 0xA0 SHL SUB NOT DUP4 AND DUP2 OR DUP5 SSTORE PUSH1 0x40 MLOAD SWAP2 SWAP1 SWAP3 AND SWAP3 DUP4 SWAP2 PUSH32 0x8BE0079C531659141344CD1FD0A4F28419497F9722A3DAAFE3B4186F6B6457E0 SWAP2 SWAP1 LOG3 POP POP JUMP JUMPDEST PUSH1 0x40 DUP1 MLOAD PUSH1 0xE0 DUP2 ADD DUP3 MSTORE PUSH1 0x0 DUP1 DUP3 MSTORE PUSH1 0x20 DUP3 ADD DUP2 SWAP1 MSTORE SWAP2 DUP2 ADD DUP3 SWAP1 MSTORE PUSH1 0x60 DUP2 ADD DUP3 SWAP1 MSTORE PUSH1 0x80 DUP2 ADD DUP3 SWAP1 MSTORE PUSH1 0xA0 DUP2 ADD DUP3 SWAP1 MSTORE PUSH1 0xC0 DUP2 ADD SWAP2 SWAP1 SWAP2 MSTORE SWAP1 JUMP JUMPDEST PUSH1 0x20 DUP1 DUP3 MSTORE DUP3 MLOAD DUP3 DUP3 ADD DUP2 SWAP1 MSTORE PUSH1 0x0 SWAP2 SWAP1 PUSH1 0x40 SWAP1 DUP2 DUP6 ADD SWAP1 DUP7 DUP5 ADD DUP6 JUMPDEST DUP3 DUP2 LT ISZERO PUSH2 0xBA3 JUMPI DUP2 MLOAD DUP1 MLOAD DUP6 MSTORE DUP7 DUP2 ADD MLOAD PUSH1 0x1 PUSH1 0x1 PUSH1 0xA0 SHL SUB SWAP1 DUP2 AND DUP9 DUP8 ADD MSTORE DUP7 DUP3 ADD MLOAD DUP8 DUP8 ADD MSTORE PUSH1 0x60 DUP1 DUP4 ADD MLOAD DUP3 AND SWAP1 DUP8 ADD MSTORE PUSH1 0x80 DUP1 DUP4 ADD MLOAD SWAP1 SWAP2 AND SWAP1 DUP7 ADD MSTORE PUSH1 0xA0 DUP1 DUP3 ADD MLOAD SWAP1 DUP7 ADD MSTORE PUSH1 0xC0 SWAP1 DUP2 ADD MLOAD ISZERO ISZERO SWAP1 DUP6 ADD MSTORE PUSH1 0xE0 SWAP1 SWAP4 ADD SWAP3 SWAP1 DUP6 ADD SWAP1 PUSH1 0x1 ADD PUSH2 0xB39 JUMP JUMPDEST POP SWAP2 SWAP8 SWAP7 POP POP POP POP POP POP POP JUMP JUMPDEST DUP1 CALLDATALOAD PUSH1 0x1 PUSH1 0x1 PUSH1 0xA0 SHL SUB DUP2 AND DUP2 EQ PUSH2 0xBC7 JUMPI PUSH1 0x0 DUP1 REVERT JUMPDEST SWAP2 SWAP1 POP JUMP JUMPDEST PUSH1 0x0 DUP1 PUSH1 0x0 PUSH1 0x60 DUP5 DUP7 SUB SLT ISZERO PUSH2 0xBE1 JUMPI PUSH1 0x0 DUP1 REVERT JUMPDEST PUSH2 0xBEA DUP5 PUSH2 0xBB0 JUMP JUMPDEST SWAP6 PUSH1 0x20 DUP6 ADD CALLDATALOAD SWAP6 POP PUSH1 0x40 SWAP1 SWAP5 ADD CALLDATALOAD SWAP4 SWAP3 POP POP POP JUMP JUMPDEST PUSH1 0x0 PUSH1 0x20 DUP3 DUP5 SUB SLT ISZERO PUSH2 0xC11 JUMPI PUSH1 0x0 DUP1 REVERT JUMPDEST POP CALLDATALOAD SWAP2 SWAP1 POP JUMP JUMPDEST PUSH1 0x0 DUP1 PUSH1 0x40 DUP4 DUP6 SUB SLT ISZERO PUSH2 0xC2B JUMPI PUSH1 0x0 DUP1 REVERT JUMPDEST PUSH2 0xC34 DUP4 PUSH2 0xBB0 JUMP JUMPDEST SWAP5 PUSH1 0x20 SWAP4 SWAP1 SWAP4 ADD CALLDATALOAD SWAP4 POP POP POP JUMP JUMPDEST PUSH1 0x0 PUSH1 0x20 DUP3 DUP5 SUB SLT ISZERO PUSH2 0xC54 JUMPI PUSH1 0x0 DUP1 REVERT JUMPDEST PUSH2 0xC5D DUP3 PUSH2 0xBB0 JUMP JUMPDEST SWAP4 SWAP3 POP POP POP JUMP JUMPDEST PUSH4 0x4E487B71 PUSH1 0xE0 SHL PUSH1 0x0 MSTORE PUSH1 0x11 PUSH1 0x4 MSTORE PUSH1 0x24 PUSH1 0x0 REVERT JUMPDEST DUP1 DUP3 ADD DUP1 DUP3 GT ISZERO PUSH2 0xC8D JUMPI PUSH2 0xC8D PUSH2 0xC64 JUMP JUMPDEST SWAP3 SWAP2 POP POP JUMP JUMPDEST PUSH4 0x4E487B71 PUSH1 0xE0 SHL PUSH1 0x0 MSTORE PUSH1 0x41 PUSH1 0x4 MSTORE PUSH1 0x24 PUSH1 0x0 REVERT JUMPDEST PUSH4 0x4E487B71 PUSH1 0xE0 SHL PUSH1 0x0 MSTORE PUSH1 0x32 PUSH1 0x4 MSTORE PUSH1 0x24 PUSH1 0x0 REVERT JUMPDEST DUP2 DUP2 SUB DUP2 DUP2 GT ISZERO PUSH2 0xC8D JUMPI PUSH2 0xC8D PUSH2 0xC64 JUMP INVALID LOG2 PUSH5 0x6970667358 0x22 SLT KECCAK256 0x26 0xB1 RETURN 0x21 DUP11 0xDE 0x1E 0xAA PUSH29 0x8AF460D96E40E3229DE438991246545E04505DDA4907D564736F6C6343 STOP ADDMOD GT STOP CALLER "},"methodIdentifiers":{"createMarketSale(address,uint256)":"c23b139e","fetchItemsCreated()":"f064c32e","fetchMarketTokens()":"c69bdf75","fetchMyNFTs()":"202e3740","getListingPrice()":"12e85585","makeMarketItem(address,uint256,uint256)":"7a060f56","owner()":"8da5cb5b","renounceOwnership()":"715018a6","setListingPrice(uint256)":"7c726b69","transferOwnership(address)":"f2fde38b"}}}}}